:1000000078A1002035CC0000B5C900009563000040
:1000100043CC000043CC000043CC000043CC0000A4
:1000200000000000000000000000000043CC0000C1
:1000300043CC000000000000DF62000045CE00005D
:100040006FA500009FA400002BA6000075A600006D
:10005000E9B60000C7C70000000000000000000073
:100060000000000000000000000000000000000090
:100070000000000000000000000000000000000080
:100080000000000000000000000000000000000070
:100090000000000000000000000000000000000060
:1000A0000000000000000000000000000000000050
:1000B0000000000000000000000000000000000040
:1000C0000000000000000000000000000000000030
:1000D0000000000000000000000000000000000020
:1000E0000000000000000000000000000000000010
:1000F0000000000000000000000000000000000000
:1001000000000000000000000000000000000000EF
:1001100000000000000000000000000000000000DF
:1001200000000000000000000000000000000000CF
:1001300000000000000000000000000000000000BF
:1001400000000000000000000000000000000000AF
:10015000000000000000000000000000000000009F
:10016000000000000000000000000000000000008F
:10017000000000000000000000000000000000007F
:10018000000000000000000000000000000000006F
:10019000000000000000000000000000000000005F
:1001A000000000000000000000000000000000004F
:1001B000000000000000000000000000000000003F
:1001C000FFFFFFFFFFFFFFFFFFFFFFFFFFFFFFFF3F
:1001D000FFFFFFFFFFFFFFFFFFFFFFFFFFFFFFFF2F
:1001E000FFFFFFFFFFFFFFFFFFFFFFFFFFFFFFFF1F
:1001F000FFFFFFFFFFFFFFFFFFFFFFFFFFFFFFFF0F
:1002000010B5054C237833B9044B13B1044800E012
:1002100000BF0123237010BD9806002000000000DD
:10022000D4A6010008B5034B1BB10349034800E005
:1002300000BF08BD000000009C060020D4A60100FD
:1002400080B483B000AF0346FB71FA795949134675
:100250005B001344DB000B44D3ED007AB0EE087A68
:10026000F4EEC77AF1EE10FA0BD8FA795149134639
:100270005B001344DB000B444FF081421A60032300
:1002800092E0FA794B4913465B001344DB000B44C0
:10029000D3ED007A9FED487AF4EEC77AF1EE10FACA
:1002A0000ADBFA79434913465B001344DB000B4435
:1002B000424A1A60032377E0FA793E4913465B000D
:1002C0001344DB000B440433D3ED007AF5EEC07A1F
:1002D000F1EE10FA0CD8FA79364913465B00134454
:1002E000DB000B4404334FF07E521A6003235BE0C3
:1002F000FA79304913465B001344DB000B440433A6
:10030000D3ED007A9FED2C7AF4EEC77AF1EE10FA75
:100310000BDBFA79274913465B001344DB000B44DF
:100320000433264A1A6003233EE0FA792149134632
:100330005B001344DB000B4493ED007AFA791D490E
:1003400013465B001344DB000B440833D3ED007A03
:10035000FA7977EE277A174913465B001344DB00DE
:100360000B44C3ED007AFA79124913465B0013443B
:10037000DB000B44043393ED007AFA790D49134600
:100380005B001344DB000B440C33D3ED007AFA79A5
:1003900077EE277A074913465B001344DB000B44D2
:1003A0000433C3ED007A022318460C37BD465DF8CE
:1003B000047B7047B40600200000FC420000FA42B3
:1003C00080B582B000AF00237B60F1E000F0DAFA84
:1003D0000346184680497A6813465B001344DB00E5
:1003E0000B44143302461A800EF02EFD02467B4B5E
:1003F00083FB021313449911D317C91A0B465B01EF
:100400005B1A9B00D11A0B1D07EE903AF8EEE77AC3
:1004100071497A6813465B001344DB000B44C3ED5B
:10042000007A0EF011FD03465A4203F07F0302F0FA
:100430007F0258BF534207EE903AF8EEE77A6649DA
:100440007A6813465B001344DB000B440433C3EDAE
:10045000007A0EF0F9FC0246614B83FB0213134451
:100460001911D317C91A0B461B015B1A5B00D11A6D
:10047000A1F10F0307EE903AF8EEE77A9FED597A73
:1004800067EE877A54497A6813465B001344DB00B1
:100490000B440833C3ED007A0EF0D6FC0246504BF5
:1004A00083FB021313441911D317C91A0B461B01FE
:1004B0005B1A5B00D11AA1F10F0307EE903AF8EE38
:1004C000E77A9FED487A67EE877A43497A68134660
:1004D0005B001344DB000B440C33C3ED007A3E4950
:1004E0007A6813465B001344DB000B4408331B6837
:1004F00018460EF039FF34A3D3E900230FF0FEF9BC
:100500000346002B1ED034497A6813465B0013441F
:10051000DB000B4408331B6818460EF025FF2CA3A4
:10052000D3E900230FF008FA0346002B0AD02A492A
:100530007A6813465B001344DB000B4408334FF02A
:100540007C521A6024497A6813465B001344DB002E
:100550000B440C331B6818460EF006FF1AA3D3E9B0
:1005600000230FF0CBF90346002B1ED01A497A68FE
:1005700013465B001344DB000B440C331B68184626
:100580000EF0F2FE12A3D3E900230FF0D5F90346D3
:10059000002B0AD010497A6813465B001344DB0035
:1005A0000B440C334FF07C521A607B6801337B6044
:1005B0007B68182B7FF70AAF00BF00BF0837BD4626
:1005C00080BD00BFAFF300809A9999999999C93F6E
:1005D0009A9999999999C9BFB40600204308218432
:1005E00089888888CDCCCC3DB0B584B002AF0023DB
:1005F0007B60C5E07B68DBB21846FFF721FE03464F
:10060000032B40F0BA8000F0BDF903461846BE49FE
:100610007A6813465B001344DB000B441433024634
:100620001A800EF011FC0246B84B83FB02131344F0
:100630001911D317C91A0B461B015B1A5B00D11A9B
:10064000A1F10F0307EE903AF8EEE77A9FEDB07A4A
:1006500067EE877AAC497A6813465B001344DB0087
:100660000B440833C3ED007A0EF0EEFB0246A74BB5
:1006700083FB021313441911D317C91A0B461B012C
:100680005B1A5B00D11AA1F10F0307EE903AF8EE66
:10069000E77A9FED9F7A67EE877A9B497A681346DF
:1006A0005B001344DB000B440C33C3ED007A964926
:1006B0007A6813465B001344DB000B4408331B6865
:1006C00018460EF051FE8CA3D3E900230FF016F963
:1006D0000346002B1ED08C497A6813465B001344F6
:1006E000DB000B4408331B6818460EF03DFE84A364
:1006F000D3E900230FF020F90346002B0AD08249EA
:100700007A6813465B001344DB000B4408334FF058
:100710007C521A607C497A6813465B001344DB0004
:100720000B440C331B6818460EF01EFE72A3D3E96F
:1007300000230FF0E3F80346002B1ED072497A68BD
:1007400013465B001344DB000B440C331B68184654
:100750000EF00AFE6AA3D3E900230FF0EDF803467A
:10076000002B0AD068497A6813465B001344DB000B
:100770000B440C334FF07C521A607B6801337B6072
:100780007B68182B7FF736AF00237B60ADE000233A
:100790003B60A3E05C497A6813465B001344DB00CE
:1007A0000B4493ED007A58493A6813465B001344B2
:1007B000DB000B44D3ED007A37EE677A52497A6852
:1007C00013465B001344DB000B44D3ED006A4E4933
:1007D0003A6813465B001344DB000B44D3ED007A08
:1007E00076EEE77A27EE277A47497A6813465B0068
:1007F0001344DB000B440433D3ED006A42493A68EA
:1008000013465B001344DB000B440433D3ED007A42
:1008100076EEE76A3C497A6813465B001344DB00D6
:100820000B44043393ED006A37493A6813465B0082
:100830001344DB000B440433D3ED007A76EE677A81
:1008400066EEA77A77EE277A9FED327AF4EEC77AD2
:10085000F1EE10FA3FD52C493A6813465B00134479
:10086000DB000B44D3ED007AFDEEE77A17EE903A09
:1008700018B225493A6813465B001344DB000B4469
:100880000433D3ED007AFDEEE77A17EE903A19B211
:100890001D4C7A6813465B001344DB002344D3ED00
:1008A000007AFDEEE77A17EE903A1CB2164D7A68A0
:1008B00013465B001344DB002B440433D3ED007A72
:1008C000FDEEE77A17EE903A1BB24FF6FF720092F8
:1008D000224600F03DFB3B6801333B603B68182B30
:1008E0007FF758AF7B6801337B607B68182B7FF7FD
:1008F0004EAF00237B603BE09A9999999999C93F43
:100900009A9999999999C9BFB406002089888888CD
:10091000CDCCCC3D0000614419497A6813465B0098
:100920001344DB000B44D3ED007AFDEEE77A17EEBB
:10093000903A18B212497A6813465B001344DB0000
:100940000B440433D3ED007AFDEEE77A17EE903ACC
:1009500019B20B4C7A6813465B001344DB00234446
:1009600014331B88022200F0FBFB7B6801337B60A1
:100970007B68182BD0DD00BF00BF0837BD46B0BD77
:10098000B406002080B582B000AF0EF05DFA0346D9
:10099000FB710EF059FA0346BB710EF055FA03468F
:1009A0007B71FB79DB021AB2BB795B011BB213438B
:1009B0001AB27B791BB213431BB29BB2184608379D
:1009C000BD4680BD80B483B000AF0346FB710E4AC4
:1009D00013886FF34513138000BF00BF0A4A1388C2
:1009E0006FF3C3031380094BFA7992B21A8000BFE8
:1009F00000BF054A138843F00803138000BF0C377B
:100A0000BD465DF8047B7047800008402000084028
:100A100080B483B000AF0346FB710E4A138843F0E5
:100A20002003138000BF00BF0A4A13886FF3C3037B
:100A30001380094BFA7992B21A8000BF00BF054AB1
:100A4000138843F00803138000BF0C37BD465DF8E0
:100A5000047B7047800008402000084080B500AF4C
:100A60001520FFF7AFFF0020FFF7D2FF7F20FFF731
:100A7000CFFF7520FFF7A6FF0020FFF7C9FF7F20FB
:100A8000FFF7C6FF00BF80BD80B582B000AFFFF7A3
:100A9000E5FF5C20FFF796FF00237B6022E0002348
:100AA0003B6019E03B685B00124ADB011A447B683B
:100AB00013441B781846FFF7ABFF3B685B0001331C
:100AC0000C4ADB011A447B6813441B781846FFF775
:100AD0009FFF3B6801333B603B687F2BE2DD7B6817
:100AE00001337B607B687F2BD9DD00BF00BF0837F7
:100AF000BD4680BD0C09002080B483B000AF002348
:100B00007B601EE000233B6015E07B685B00124ABF
:100B1000DB011A443B68134400221A707B685B00B7
:100B200001330D4ADB011A443B68134400221A705A
:100B30003B6801333B603B687F2BE6DD7B6801331C
:100B40007B607B687F2BDDDD00BF00BF0C37BD46BF
:100B50005DF8047B704700BF0C09002080B483B0AF
:100B600000AF0346FB800B46BB8013467B80B7F982
:100B700006307F2B29DCB7F904307F2B25DCB7F951
:100B80000630002B23DBB7F90430002B1FDB7B88FA
:100B90001B0A99B2B7F906305A00B7F90430C8B247
:100BA0000E49D2010A44134402461A70B7F90630BE
:100BB0005B005A1CB7F904307988C8B20749D201E2
:100BC0000A44134402461A7002E000BF00E000BF6E
:100BD0000C37BD465DF8047B704700BF0C09002050
:100BE00090B585B000AF0446084611461A46234624
:100BF000FB800346BB800B467B8013463B80FB8813
:100C0000FB813A88B7F90410B7F906301846FFF7A8
:100C1000A5FFB7F906309BB201339BB2FB80B7F951
:100C20000E20B7F902301A44B7F906309A42E8DAD2
:100C300000BF00BF1437BD4690BD90B585B000AF72
:100C40000446084611461A462346FB800346BB80ED
:100C50000B467B8013463B80BB88FB813A88B7F903
:100C60000410B7F906301846FFF778FFB7F90430DB
:100C70009BB201339BB2BB80B7F90E20B7F90230AB
:100C80001A44B7F904309A42E8DA00BF00BF1437BB
:100C9000BD4690BD80B500AF5B4A13886FF3C303B8
:100CA000138000BF00BF00BF00BF574A13886FF317
:100CB0008613138000BF00BF00BF00BF524A1388D5
:100CC0006FF304131380282004F012FD4E4A13889A
:100CD00043F010031380142004F00AFDFD20FFF7F9
:100CE00071FE1220FFF794FEFD20FFF76BFEB1208E
:100CF000FFF78EFEAE20FFF765FEA420FFF762FE31
:100D00001520FFF75FFE0020FFF782FE7F20FFF730
:100D10007FFE7520FFF756FE0020FFF779FE7F204B
:100D2000FFF776FEB320FFF74DFEF120FFF770FED0
:100D3000CA20FFF747FE7F20FFF76AFEA020FFF7DB
:100D400041FE7420FFF764FEA120FFF73BFE002068
:100D5000FFF75EFEA220FFF735FE0020FFF758FEEA
:100D6000AB20FFF72FFE0120FFF72CFEB420FFF78A
:100D700029FEA020FFF74CFEB520FFF749FE5520C5
:100D8000FFF746FEC120FFF71DFEC820FFF740FE1B
:100D90008020FFF73DFEC020FFF73AFEC720FFF797
:100DA00011FE0F20FFF734FEB120FFF70BFE3220BB
:100DB000FFF72EFEB220FFF705FEA420FFF728FE66
:100DC0000020FFF725FE0020FFF722FEBB20FFF7E3
:100DD000F9FD1720FFF71CFEB620FFF7F3FD0120F9
:100DE000FFF716FEBE20FFF7EDFD0520FFF710FE12
:100DF000A620FFF7E7FDFFF77FFEFFF745FEAF20D8
:100E0000FFF7E0FD00BF80BD8000084090B589B0CD
:100E100000AF0446084611461A462346FB800346A7
:100E2000BB800B467B8013463B80B7F90020B7F9A7
:100E30000430D31A83EAE372A2EBE372B7F902102B
:100E4000B7F90630CB1A002BB8BF5B429A42CCBF31
:100E500001230023DBB27B83B7F91A30002B0BD0C0
:100E6000FB883B83BB88FB803B8BBB807B88FB8202
:100E70003B887B80FB8A3B80B7F90620B7F90230BC
:100E80009A420BDDFB88BB827B88FB80BB8A7B8020
:100E9000BB887B823B88BB807B8A3B807A88FB88CF
:100EA000D31A9BB23B82B7F90020B7F90430D31AAA
:100EB000002BB8BF5B42FB81B7F91030DA0F134447
:100EC0005B10FB83B7F90420B7F900309A4202DACD
:100ED0000123BB8331E04FF6FF73BB832DE0B7F9ED
:100EE0001A30002B08D03A8EB7F90610B7F9043043
:100EF0001846FFF733FE07E03A8EB7F90410B7F94A
:100F000006301846FFF72AFEFA8BFB89D31A9BB2EC
:100F1000FB83B7F91E30002B09DABA88BB8B134468
:100F20009BB2BB80FA8B3B8A13449BB2FB83B7F91D
:100F300006309BB201339BB2FB80B7F90620B7F9AC
:100F400002309A42CBDD00BF00BF2437BD4690BDC2
:100F500090B587B002AF0446084611461A462346AC
:100F6000FB800346BB800B467B8013463B80B7F972
:100F70000620B7F902309A4218D1B7F90420B7F920
:100F800000309A4205DDBB88BB813B88BB80BB89B2
:100F90003B803A88BB88D31A9BB21AB23B8CB7F914
:100FA0000410B7F90600FFF748FE2BE0B7F904205C
:100FB000B7F900309A4218D1B7F90620B7F90230D4
:100FC0009A4205DDFB88FB817B88FB80FB897B8067
:100FD0007A88FB88D31A9BB21AB23B8CB7F90410FB
:100FE000B7F90600FFF7FCFD0CE0B7F90040B7F9D0
:100FF0000220B7F90410B7F906003B8C0093234692
:10100000FFF704FF00BF1437BD4690BD90B587B011
:1010100000AF0446084611461A462346FB800346A5
:10102000BB800B467B8013467B707B88C3F101033A
:101030009BB2FB820123BB827B881A46D203D31A60
:101040005B009BB27B8200233B827B88FB817BE041
:10105000B7F91630002B0EDBB7F90E309BB2013B0F
:101060009BB2FB817B8A02339BB27B82FA8A7B8AAA
:1010700013449BB2FB82B7F910309BB201339BB291
:101080003B82BB8A02339BB2BB82FA8ABB8A13447F
:101090009BB2FB827B7803F00103002B27D0FA88F8
:1010A0003B8A13449BB218B2BA88FB89D31A9BB20D
:1010B00019B2FB895B009AB23B8D13449BB21AB202
:1010C000BB8DFFF7BAFDFA88FB8913449BB218B2B7
:1010D000BA883B8AD31A9BB219B23B8A5B009AB298
:1010E0003B8D13449BB21AB2BB8DFFF7A6FD7B78F4
:1010F00003F00203002B27D0FA883B8AD31A9BB255
:1011000018B2BA88FB89D31A9BB219B2FB895B006B
:101110009AB23B8D13449BB21AB2BB8DFFF78DFD83
:10112000FA88FB89D31A9BB218B2BA883B8AD31AC1
:101130009BB219B23B8A5B009AB23B8D13449BB2BF
:101140001AB2BB8DFFF779FDB7F91020B7F90E3051
:101150009A42FFF67DAF00BF00BF1C37BD4690BD71
:1011600090B585B002AF0446084611461A4623469C
:10117000FB800346BB800B467B8013463B80BA88CE
:101180007B88D31A9BB219B27B885B009BB21AB2E0
:101190003B88B7F90600FFF750FDB7F90220B7F911
:1011A0000410B7F906003B88019300230093032342
:1011B000FFF72CFF00BF0C37BD4690BD90B484B044
:1011C00000AF0446084611461A462346FB800346F4
:1011D000BB800B467B8013463B80FA887B88134498
:1011E000802B7BDCBA883B881344802B76DC002381
:1011F000BB736DE00023FB7362E0BB7B7A8803FB6B
:1012000002F2FB7B13445B001A46BB699918FA880B
:10121000FB7B5B001A44B888BB7B034408783249E7
:10122000D2010A44134402461A70BB7B7A8802FB3F
:1012300003F35A00FB7B5B00013313441A46BB697E
:101240009918FA88FB7B5B0001331A44B888BB7B92
:10125000034408782449D2010A44134402461A7010
:10126000BB7B7A88013203FB02F2FB7B13445B00F9
:101270001A46BB699918FB7B5A00BB7B08781A4950
:10128000D2010A44134402461A70BB7B7A880132A9
:1012900002FB03F35A00FB7B5B00013313441A4645
:1012A000BB699918FB7B5B005A1CBB7B08780E4915
:1012B000D2010A44134402461A70FB7B0133FB73CC
:1012C000FB7B9BB27A889A4297D8BB7B0133BB7376
:1012D000BB7B9BB23A889A428CD800E000BF1037A3
:1012E000BD4690BC704700BF0C090020FFFFFFFF08
:1012F00080B584B000AF0023FB6086E0F8680EF094
:1013000011F85BA3D3E900230EF086F802460B46E2
:10131000104619464FF00002574B0EF0A7F902464F
:101320000B4643EC172BB0EE470AF0EE670A0CF0C1
:1013300027F951EC100B4FF00002504B0EF06CF8F7
:1013400002460B4643EC172BB0EE470AF0EE670A55
:101350000CF06AF953EC102B104619460EF00CFBFA
:1013600002464749FB6841F82320F8680DF0DAFF90
:101370003FA3D3E900230EF04FF802460B46104678
:1013800019464FF000023C4B0EF070F902460B4636
:1013900043EC172BB0EE470AF0EE670A0CF098F911
:1013A00051EC100B4FF00002344B0EF035F80246B2
:1013B0000B4643EC172BB0EE470AF0EE670A0CF031
:1013C00033F953EC102B104619460EF0D5FA0246AD
:1013D0002C49FB6841F82320F9682B4BA3FB012320
:1013E0009A0813465B0013445B00CA1A274B995CAA
:1013F000274AFB6813440A461A70264AFB681344BE
:1014000007221A70FB680133FB60FB683F2B7FF6F5
:1014100075AF0023BB6020E000237B600023FB60EE
:1014200010E0BA68FB6822FA03F303F00102FB68DC
:10143000C3F1060302FA03F37A6813437B60FB6887
:101440000133FB60FB68062BEBD91349BB687A6854
:1014500041F82320BB680133BB60BB687F2BDBD91D
:1014600000BF00BF1037BD4680BD00BFAFF3008096
:101470001C2D4454FB2119400000604000009040A6
:101480000C8900200C8A0020ABAAAAAA80010020A7
:101490004C9200200C9200200C8B002080B483B072
:1014A00000AF00237B6015E00F4A7B6852F82330C1
:1014B0000E4A32F81330A3F500620D497B6841F8FB
:1014C00033200B4A7B68DB00134400225A607B68A0
:1014D00001337B607B687F2BE6D900BF00BF0C37F0
:1014E000BD465DF8047B70470C8B00208C92002079
:1014F0000C8D002080B489B000AF0123FB6199E01E
:10150000FB69013B012202FA03F33B610023BB614B
:1015100088E0FB69C3F10703BA6902FA03F3FB60D1
:10152000BB697B6178E07A693B691344474A52F8AA
:1015300033304749FA6851F8222003FB02F27969F7
:101540003B690B444149DB000B445B684148F96847
:1015500050F8211001FB03F313447B607A693B6967
:1015600013443A4ADB0013445B683949FA6851F87E
:10157000222003FB02F279693B690B44334951F89D
:1015800033303448F96850F8211001FB03F3D31AC3
:10159000BB607B68002B01DA03F2FF339B127B6098
:1015A000BB68002B01DA03F2FF339B12BB60274AB2
:1015B0007B6952F833107A6878693B6903448A1A68
:1015C000224941F83320214A7B69DB0013445968E2
:1015D000BA6878693B6903448A1A1C49DB000B44EA
:1015E0005A601A4A7B6952F833207B681A441749BB
:1015F0007B6941F83320154A7B69DB0013445A6844
:10160000BB681A4411497B69DB000B445A603B6993
:101610005B007A6913447B617B697F2B83D9BB694B
:101620000133BB61BA693B699A42FFF472AFFB694F
:101630000133FB61FB69072B7FF662AF00BF00BF80
:101640002437BD465DF8047B704700BF0C8D002039
:101650000C8900200C8A00202DE9B04384B000AF33
:101660000023FB6095E0FB6801334F4A52F83330AA
:1016700018460DF067FE04460D46FB6801334A4AE2
:1016800052F8333018460DF05DFE02460B462046F8
:1016900029460DF0C1FE02460B4690469946FB686E
:1016A0000133414ADB0013445B6818460DF04AFEE3
:1016B00004460D46FB6801333B4ADB0013445B687C
:1016C00018460DF03FFE02460B46204629460DF017
:1016D000A3FE02460B46404649460DF0E7FC024693
:1016E0000B46C7E9002397ED000B0CF045F853ECCF
:1016F000102B104619460EF067F902462B49FB687D
:1017000041F823200423BB603DE0284AFB6852F8DF
:101710002330B3F5C87F05D2244AFB68012142F883
:10172000231033E0214AFB6852F82310BB6803FB07
:1017300003F213469B0013449A001344994217D3B3
:101740001A4AFB6852F82310BA6813469B001344E8
:101750009A0013443233BA68023202FB03F399420F
:1017600006D2BB685A081149FB6841F823200DE0F6
:10177000BB683E2B04D10D4AFB681F2142F82310A1
:10178000BB680233BB60BB683E2BBED9FB6801332C
:10179000FB60FB683F2B7FF666AF00BF00BF1037D2
:1017A000BD46BDE8B08300BF0C8D00200C91002029
:1017B00080B582B000AF0023FB8033E0FFF7E2F892
:1017C0000346BB80B7F906301B4A52F823309BB260
:1017D0001A46520013445B009BB27B80FB889B003F
:1017E0009BB218B27B88C3F180039BB219B2BB884D
:1017F000B7F90220FFF721FAFB889B009BB2013367
:101800009BB218B27B88C3F180039BB219B2BB882C
:10181000B7F90220FFF711FAB7F906309BB201338E
:101820009BB2FB80B7F906301F2BC7DD00BF00BF9E
:101830000837BD4680BD00BF0C91002080B584B044
:1018400000AF786039600023FB60396878680AF07F
:101850009DF9F860FB6818461037BD4680BD80B51D
:1018600084B000AF786039600023FB603968786825
:101870000AF01CFAF860FB6818461037BD4680BDB8
:1018800080B584B000AF78600023FB6078680AF010
:10189000F1FAF86000BF1037BD4680BD80B584B056
:1018A00000AF78600023FB6078680AF035FAF860D2
:1018B000FB6818461037BD4680BD80B584B000AFC8
:1018C000786039600023FB603A68002178680AF08C
:1018D0005DFAF860FB68002B01D0FB6800E0FB6854
:1018E00018461037BD4680BD80B584B000AF786023
:1018F0007B689B78FB73FB7B002B1BD1124B012277
:101900001A70124B1B685B00114A134419461148A8
:10191000FFF7D3FF0D4B1B6801330C4A13600B4BD1
:101920001B687F2B0AD90C4B01221A80074B00221F
:101930001A6003E0094B01221A7000E000BF00BFEB
:101940001037BD4680BD00BF8C93002090930020CF
:101950008C920020CC9A0020949300208D9300203C
:1019600080B582B000AF7860786809F0B3FF00BF3F
:101970000837BD4680BD80B584B000AF786039605F
:101980000023FB603968786809F0F4FEF860FB68B2
:1019900018461037BD4680BD80B584B000AF786072
:1019A0000023FB60786809F061FFF860FB68184667
:1019B0001037BD4680BD80B582B000AF78607868D2
:1019C00009F038FF00BF0837BD4680BD80B584B040
:1019D00000AF786039600023FB603968786809F0EF
:1019E0001DFBF860FB6818461037BD4680BD80B50A
:1019F00082B000AF7860786809F0A8FB00BF0837B4
:101A0000BD4680BD80B584B000AF78600023FB6028
:101A1000786809F07BFBF860FB6818461037BD4614
:101A200080BD80B485B000AF78607B681B79FB73A4
:101A3000FB7B002B00BF00BF1437BD465DF8047B65
:101A40007047FFFF80B584B002AF00237B602C4855
:101A500002F074FA00F066F82A48FFF71FFF78607A
:101A600009222949786800F0A9F82848FFF7CAFF39
:101A7000786009222649786800F0A0F800F010F993
:101A8000244BFF221A80244A138843F400631380F6
:101A9000214A138843F4005313801F4A138843F4E8
:101AA000007313801C4A138843F4807313801A4A0E
:101AB000138843F080031380FFF71AFCFFF7EAF85E
:101AC000FEF77EFC154B1B88012BFBD1134B00222C
:101AD0001A80FFF7E3FCFFF70DFDFFF7BDFDFFF7F1
:101AE0000BF80F4B00937F237F2200210020FFF78C
:101AF00065FBFEF779FDFFF75BFEFEF7C5FFE1E74B
:101B0000447B0100CC9A0020587B0100F09A002011
:101B1000807B010020000840800008409493002052
:101B200044FB000080B582B000AF00237B60184901
:101B30001848FFF720FF786017491848FFF77EFE26
:101B4000786004221649786800F038F8154913487F
:101B5000FFF785FE786005221349786800F02EF8BB
:101B600012491348FFF732FF78600622114978685E
:101B700000F024F80748FFF70FFF786009220E49AC
:101B8000786800F01BF800BF0837BD4680BD00BF75
:101B900050A00100B49A00208CA00100CC9A002033
:101BA000A47B0100A4A00100CC7B0100E8A00100FF
:101BB000F09A0020FC7B0100247C010080B584B0F9
:101BC00000AFF860B9601346FB71FB68002B59D079
:101BD000FB79092B57D801A252F823F0051C00000D
:101BE0000D1C00001B1C0000871C0000871C00004F
:101BF000291C00003D1C0000511C0000871C000037
:101C00006B1C00002248FFF7D6FE3CE02048FFF79F
:101C1000D2FE2048FFF7A4FE35E01D48FFF7CBFEBB
:101C20001C48FFF79DFE2EE01948FFF7C4FE194837
:101C3000FFF796FE1848FFF723FE24E01448FFF74D
:101C4000BAFE1448FFF78CFE1348FFF719FE1AE09E
:101C50000F48FFF7B0FE0F48FFF782FE0E48FFF770
:101C60000FFE0E48FFF7C3FE0DE00948FFF7A3FE85
:101C70000948FFF705FE0948FFF7B9FE0548FFF7D9
:101C80006FFE00E000BF00BF1037BD4680BD00BF43
:101C9000B49A0020C49A0020CC9A0020F09A002028
:101CA00080B400AFA04AD3786FF3C713D3709E4AB5
:101CB000D37843F04003D3709C4A136C6FF3104306
:101CC00013649A4A136C43F004031364974A136C29
:101CD00043F010031364954A136C6FF38613136477
:101CE000924A136C43F440631364904A136C6FF38D
:101CF0000D3313648D4A136C6FF38E3313648B4A68
:101D0000136C6FF3CF331364884A136C6FF30003C3
:101D10001364864A136C6FF31C631364834A536C19
:101D20006FF310435364814A536C43F004035364CC
:101D30007E4A536C43F0100353647C4A536C6FF338
:101D400086135364794A536C43F440635364774A6F
:101D5000536C6FF30D335364744A536C6FF38E33CB
:101D60005364724A536C6FF3CF3353646F4A536CAE
:101D70006FF3000353646D4A536C6FF31C63536439
:101D80006A4A936C6FF310439364684A936C43F010
:101D900004039364654A936C43F010039364634AAD
:101DA000936C6FF386139364604A936C43F44063BF
:101DB00093645E4A936C6FF30D3393645B4A936C48
:101DC0006FF38E339364594A936C6FF3CF339364FC
:101DD000564A936C6FF300039364544A936C6FF309
:101DE0001C639364514AD36C6FF31043D3644F4A1E
:101DF000D36C43F00403D3644C4AD36C43F0100318
:101E0000D3644A4AD36C6FF38613D364474AD36CC6
:101E100043F44063D364454AD36C6FF30D33D3640A
:101E2000424AD36C6FF38E33D364404AD36C6FF362
:101E3000CF33D3643D4AD36C6FF30003D3643B4A82
:101E4000D36C6FF31C63D364384A136D6FF3104384
:101E50001365364A136D43F004031365334A136D5B
:101E600043F010031365314A136D6FF38613136546
:101E70002E4A136D43F4406313652C4A136D6FF3C0
:101E80000D331365294A136D6FF38E331365274A9B
:101E9000136D6FF3CF331365244A136D6FF3000393
:101EA0001365224A136D6FF31C6313651F4A536D4C
:101EB0006FF3104353651D4A536D43F0040353659C
:101EC0001A4A536D43F010035365184A536D6FF36C
:101ED00086135365154A536D43F440635365134AA3
:101EE000536D6FF30D335365104A536D6FF38E339B
:101EF00053650E4A536D6FF3CF3353650B4A536DE1
:101F00006FF300035365094A536D6FF31C63536508
:101F1000064A936D6FF310439365044A936D43F043
:101F20000403936504E000BF000D0840000808406A
:101F3000CC4A936D43F010039365CA4A936D6FF3D7
:101F400086139365C74A936D43F440639365C54A0E
:101F5000936D6FF30D339365C24A936D6FF38E33B8
:101F60009365C04A936D6FF3CF339365BD4A936D0C
:101F70006FF300039365BB4A936D6FF31C63936526
:101F8000B84AD36D6FF31043D365B64AD36D43F0AF
:101F90000403D365B34AD36D43F01003D365B14A4C
:101FA000D36D6FF38613D365AE4AD36D43F44063AC
:101FB000D365AC4AD36D6FF30D33D365A94AD36DA6
:101FC0006FF38E33D365A74AD36D6FF3CF33D365E9
:101FD000A44AD36D6FF30003D365A24AD36D6FF3A8
:101FE0001C63D3659F4AD2F80C316FF31043C2F8DB
:101FF0000C319C4AD2F80C3143F00403C2F80C3186
:10200000984AD2F80C3143F01003C2F80C31954ACB
:10201000D2F80C316FF38613C2F80C31914AD2F822
:102020000C3143F44063C2F80C318E4AD2F80C31C3
:102030006FF30D33C2F80C318A4AD2F80C316FF3CA
:102040008E33C2F80C31874AD2F80C316FF3CF339C
:10205000C2F80C31834AD2F80C316FF30003C2F896
:102060000C31804AD2F80C316FF31C63C2F80C318A
:102070007C4AD2F810316FF31043C2F81031794A1C
:10208000D2F8103143F00403C2F81031754AD2F887
:10209000103143F01003C2F81031724AD2F81031F7
:1020A0006FF38613C2F810316E4AD2F8103143F440
:1020B0004063C2F810316B4AD2F810316FF30D3320
:1020C000C2F81031674AD2F810316FF38E33C2F87C
:1020D0001031644AD2F810316FF3CF33C2F81031A7
:1020E000604AD2F810316FF30003C2F810315D4A34
:1020F000D2F810316FF31C63C2F81031594AD2F88C
:1021000014316FF31043C2F81431564AD2F8143127
:1021100043F00403C2F81431524AD2F8143143F0A8
:102120001003C2F814314F4AD2F814316FF38613FA
:10213000C2F814314B4AD2F8143143F44063C2F868
:102140001431484AD2F814316FF30D33C2F8143108
:10215000444AD2F814316FF38E33C2F81431414A35
:10216000D2F814316FF3CF33C2F814313D4AD2F8AC
:1021700014316FF30003C2F814313A4AD2F8143123
:102180006FF31C63C2F81431364AD2F818316FF37A
:102190001043C2F81831334AD2F8183143F004031F
:1021A000C2F818312F4AD2F8183143F01003C2F8A0
:1021B00018312C4AD2F818316FF38613C2F818314F
:1021C000284AD2F8183143F44063C2F81831254A3E
:1021D000D2F818316FF30D33C2F81831214AD2F812
:1021E00018316FF38E33C2F818311E4AD2F8183105
:1021F0006FF3CF33C2F818311A4AD2F818316FF39F
:102200000003C2F81831174AD2F818316FF31C6373
:10221000C2F81831134AD2F81C316FF31043C2F8D8
:102220001C31104AD2F81C3143F00403C2F81C31AF
:102230000C4AD2F81C3143F01003C2F81C31094A91
:10224000D2F81C316FF38613C2F81C31054AD2F85C
:102250001C3143F44063C2F81C31024AD2F81C31ED
:1022600002E000BF000808406FF30D33C2F81C31D4
:10227000154AD2F81C316FF38E33C2F81C31124A62
:10228000D2F81C316FF3CF33C2F81C310E4AD2F8AA
:102290001C316FF30003C2F81C310B4AD2F81C3119
:1022A0006FF31C63C2F81C31084AD3786FF38613AE
:1022B000D370064AD37843F08003D37000BFBD4685
:1022C0005DF8047B704700BF00080840000D08401F
:1022D00080B400AF034B1B681846BD465DF8047B15
:1022E000704700BF9893002080B582B000AF1B4BB1
:1022F0001B68002B02D0194B1B68984703F0D8FFCE
:102300007860174B1B680133154A136003F062F8BD
:1023100038603B689B6C5A1E3B689A643B689B6CB8
:10232000002B12D13B685A6C3B689A643B6893F867
:10233000343043F00803DAB23B6883F8342078681D
:1023400003F0BAFF02F04EFD02E0786803F0B4FF3C
:1023500003F022FE00BF0837BD4680BD9C930020DD
:102360009893002080B485B000AF78607B68002B24
:1023700003DA4FF0FF33FB6027E07B68164A82FBED
:1023800003129211DB17D31A4FF47A7202FB03F394
:10239000FB607A68104B83FB02139911D317CB1A99
:1023A0004FF47A7101FB03F3D31A4FF47A7202FBF4
:1023B00003F303F2E733084A82FB03129211DB179F
:1023C000D31A1A46FB681344FB60FB68184614379F
:1023D000BD465DF8047B7047D34D621080B400AFFA
:1023E00000231846BD465DF8047B704780B400AFFB
:1023F00000231846BD465DF8047B704780B400AFEB
:1024000000231846BD465DF8047B704780B400AFDA
:1024100000231846BD465DF8047B704780B582B046
:1024200000AF094B7B6005E07B681B6898477B68C1
:1024300004337B607B68054A9342F5D300BF00BF3D
:102440000837BD4680BD00BF34FB000038FB0000EC
:1024500080B582B000AF094B7B6005E07B681B68EC
:1024600098477B6804337B607B68054A9342F5D3C9
:1024700000BF00BF0837BD4680BD00BF38FB00006D
:1024800040FB000080B500AF00F036F8002318468E
:1024900080BD80B582B000AF7860FFF7D9FF07F04C
:1024A000FAFC00BF0837BD4680BDFFFF80B584B091
:1024B00002AF142301930A2300934FF40063002218
:1024C00009490A4803F034F878607B68002B04D18E
:1024D000D5220749074801F06FFE786802F086FFB1
:1024E00000BF0837BD4680BD93240000447C010036
:1024F0005C7C01004C7C010080B500AF03F0D8FE8D
:102500000AF0AAFC01F0F2F803F084FE02F032FCBB
:10251000FFF7CCFF03F098FE00F074FA02F046FCDF
:102520000023184680BD80B584B000AFF860B96064
:102530001346FB80FB68002B02D14FF0FF3318E0FD
:10254000B86800F01AF80346002B02D04FF0FF33B2
:102550000FE0FB68BA680921184602F07DF9FB68B4
:10256000FA88DA82FB6800229A76FB6800221A83D6
:10257000002318461037BD4680BD80B582B000AF3D
:1025800078600921786802F0DDFA034618460837BA
:10259000BD4680BD80B584B000AF78600B467B80BF
:1025A0000023FB607B68002B04D1D0223A493B48D2
:1025B00001F002FE7B68184602F0AAFA0346092BD6
:1025C00004D0D1223449364801F0F6FD7B68DB8A1D
:1025D00003F01003002B1AD17B685B6A002B0FD02D
:1025E0007B685B6A78689847F860FB68002B07D0C7
:1025F0007B68FA6819462B4801F0A0FCFB6847E0AD
:102600007B68DB8A43F010039AB27B68DA827B68CE
:10261000DB8A03F00803002B08D07B681B8B03F0D8
:102620000803002B02D06FF0060331E07B689B6A41
:10263000002B07D07B689B6A7A8811467868984798
:10264000F86007E07B8823F0F0031B051B0D9AB2AE
:102650007B681A83FB68002B03D0FB6813F1060F1D
:1026600015D17B681B8B43F008039AB27B681A83F1
:102670007B689B7E0133DAB27B689A767B689B7EAF
:10268000002B04D1FF220449074801F095FDFB68A7
:1026900018461037BD4680BD647D0100707C010086
:1026A000807C0100187D0100507D010080B584B060
:1026B00000AF78600023FB607B68002B05D14FF4EE
:1026C00089721E491E4801F077FD7B68184602F0AA
:1026D0001FFA0346092B05D040F213121749194877
:1026E00001F06AFD7B689B7E002B02D14FF0FF3327
:1026F0001FE07B689B7E013BDAB27B689A767B6841
:102700009B7E002B01D0002313E07B68DB6A002B4B
:1027100004D07B68DB6A78689847F860FB68002B18
:1027200003D0FB6813F1060F02D17B6800221A83E5
:10273000FB6818461037BD4680BD00BF747D0100A0
:10274000707C0100807C010090B585B000AFF8601E
:10275000B9607A603B60FB68002B05D14FF4A07232
:102760001849194801F028FDFB68184602F0D0F915
:102770000346092B05D040F241121249134801F0DB
:102780001BFDFB689B7E002B05D14FF0FF3000F056
:10279000FFFD002311E0FB681B6B002B08D0FB68DA
:1027A0001C6B3B687A68B968F868A047034604E088
:1027B0006FF0050000F0ECFD002318461437BD460D
:1027C00090BD00BF847D0100707C0100807C010011
:1027D00090B585B000AFF860B9607A603B60FB6887
:1027E000002B05D140F26B121849194801F0E4FCA6
:1027F000FB68184602F08CF90346092B05D04FF40C
:10280000B6721249134801F0D7FCFB689B7E002B7F
:1028100005D14FF0FF3000F0BBFD002311E0FB6855
:102820005B6B002B08D0FB685C6B3B687A68B9680F
:10283000F868A047034604E06FF0050000F0A8FD2B
:10284000002318461437BD4690BD00BF947D01009B
:10285000707C0100807C010080B582B000AF7860A0
:1028600039607B68002B05D140F2AB120C490D4852
:1028700001F0A2FC7B68184602F04AF90346092BD6
:1028800005D04FF4D6720649074801F095FC7B68E5
:102890003A68DA61002318460837BD4680BD00BF9C
:1028A000A47D0100707C0100807C010080B483B0B5
:1028B00000AF786039607B681B683A685A607B6853
:1028C0001A683B681A607B683A681A603B687A68E5
:1028D0005A6000BF0C37BD465DF8047B704780B47A
:1028E00083B000AF78607B681B687A6852685A6072
:1028F0007B685B687A6812681A607B687A685A60DD
:102900007B685A687B681A6000BF0C37BD465DF86B
:10291000047B704780B582B000AF78607B68143369
:1029200019460348FFF7C2FF00BF0837BD4680BD08
:102930008801002090B583B000AF00237B600D4B71
:102940003B603B681B683A689A420ED03B681B6844
:10295000143B7B6003F0ACFC04467B6814331846E0
:10296000FFF7BDFF204603F0A7FC7B6818460C3735
:10297000BD4690BD8801002080B582B000AFFFF752
:10298000D9FF78607B68002B1BD07B689B6F3B6016
:102990003B68002B02D03B6878689847786802F063
:1029A00099F80346012B03D1786801F0BBFFE6E7F5
:1029B0007B689B6A184601F0CDFB786802F04CF802
:1029C000DDE700BF00BF0837BD4680BD80B584B0DD
:1029D00000AF78600023FB600CE0094AFB6852F806
:1029E0002330BB60BB68002B01D0BB689847FB68F5
:1029F0000133FB60FB68032BEFD9FFF7BDFFE9E76D
:102A00002095002080B588B004AF0023FB6024E04F
:102A10003B1DFA681549184601F038FAFB68DB01DE
:102A2000134A9818FB681B02124A1344391D2022CE
:102A300003921F2202924FF48072019200930023AE
:102A40000D4A02F08FFCFB68DB01094A134418466B
:102A500002F0CCFCFB680133FB60FB68002BD7D095
:102A600000BF00BF1037BD4680BD00BFC07D010064
:102A7000A093002020940020CD29000080B483B0D2
:102A800000AF78607B687A685A607B685A687B68B8
:102A90001A6000BF0C37BD465DF8047B704780B4F8
:102AA00083B000AF786039607B685B683A681A6011
:102AB0007B685A683B685A607B683A685A603B6832
:102AC0007A681A6000BF0C37BD465DF8047B70471A
:102AD00080B483B000AF78607B681B687A689A42E4
:102AE0000CBF01230023DBB218460C37BD465DF84E
:102AF000047B704780B582B000AF78607B68143388
:102B00001846FFF7BBFF002318460837BD4680BDB7
:102B100080B586B000AFF860B9601346FB71B86845
:102B200002F074FEFB79002B02D0012B07D031E0BC
:102B3000BB6814331946F868FFF7B1FF31E0FB6852
:102B40001B687B6117E07B69143B3B61BB6893F8B2
:102B500035203B6993F835309A4209D23B6903F13D
:102B60001402BB68143319461046FFF798FF06E0BD
:102B70007B691B687B617A69FB689A42E3D17A6959
:102B8000FB689A420CD1BB6814331946F868FFF70A
:102B900086FF05E0A3220549054801F00DFB00E092
:102BA00000BF002318461837BD4680BDC082010013
:102BB000C87D010080B584B000AF78607B681B6879
:102BC000143BFB60F86802F085FE002318461037BE
:102BD000BD4680BD80B584B000AFF860B9607A6052
:102BE000FB70FB68002B05D14FF49672174918480B
:102BF00001F0E2FA7B68B3F5803F05D340F22D1275
:102C00001249144801F0D8FAFB78002B08D0FB7861
:102C1000012B05D04FF497720C490F4801F0CCFA04
:102C2000FB68BA680221184601F016FEFB681846D8
:102C3000FFF760FF7B689AB2FB689A83FB68FA78BB
:102C40005A72002318461037BD4680BDA882010085
:102C5000CC7D0100DC7D0100F07D010090B587B0E6
:102C600000AF786039607B68002B05D140F2E51237
:102C70005649574801F0A0FA7B68184601F048FF12
:102C80000346022B05D04FF4F3725049514801F02E
:102C900093FA3B68002B3ED003F00AFB786102F008
:102CA0003DFA0346002B09D048494B4801F046F94C
:102CB00040F2E9124549494801F07EFA03F0F8FA7A
:102CC000386102F087FB0346002B09D13F49444895
:102CD00001F034F940F2E9123C49404801F06CFA45
:102CE00003F0E6FAF86000F03FFB0346002B09D042
:102CF00036493C4801F022F940F2E912334937489D
:102D000001F05AFAF86803F0D7FA386903F0D4FAF8
:102D1000786903F0D1FA344B1B68002B04D0324B96
:102D20001B687A681046984703F0C2FA04467B682D
:102D30009B8B002B09D07B689B8B013B9AB27B68F5
:102D40009A83204603F0B8FA32E03B68002B05D1A5
:102D5000204603F0B1FA6FF0010333E002F03AFBD2
:102D6000B860BB6800221A637B6803F114007B68BB
:102D70005B7A1A46B968FFF7CBFE3B68002B0BDD88
:102D8000BB684C333A460021184603F097F8BB68FD
:102D90004C33184602F036FF204603F08DFA02F05D
:102DA00021F8BB681B6B002B02D0BB681B6B09E0D2
:102DB0000E4B1B68002B04D00C4B1B687A68104626
:102DC0009847002318461C37BD4690BDB4820100C9
:102DD000CC7D01002C7E0100087F0100C87D010030
:102DE000347F0100A47E010000960020049600209C
:102DF000B0B582B000AF78607B68002B05D140F29F
:102E00005F222649264801F0D7F97B68184601F071
:102E10007FFE0346022B05D04FF418721F4921484C
:102E200001F0CAF9204B1B68002B04D01E4B1B6815
:102E30007A6810469847002503F03AFA04467B6802
:102E400014331846FFF744FE0346002B06D17B6877
:102E500014331846FFF7AEFE012512E07B689B8B0A
:102E60004FF6FF72934206D07B689B8B01339AB278
:102E70007B689A8305E0204603F01EFA6FF0020398
:102E800007E0204603F018FA012D01D101F0AAFF56
:102E9000002318460837BD46B0BD00BFD4820100EC
:102EA000CC7D01002C7E01000896002080B584B006
:102EB00000AFF860B9601346FB71FB68002B05D1C9
:102EC00040F2E6221049114801F076F9FB68BA6831
:102ED0000321184601F0C0FCFB681846FFF70AFE04
:102EE000FB6801229A83FB6800221A62FB68FF22BA
:102EF0009A77FB680022DA77FB6801225A72002376
:102F000018461037BD4680BDE48201006C7F010089
:102F100090B587B000AF7860396003F0C9F9786187
:102F200002F0FCF80346002B09D07749774801F0FE
:102F300005F84FF465727449754801F03DF903F0E6
:102F4000B7F9386102F046FA0346002B09D16E4901
:102F5000704800F0F3FF4FF465726B496C4801F064
:102F60002BF903F0A5F9F86000F0FEF90346002BF9
:102F700009D06549684800F0E1FF4FF46572624985
:102F8000634801F019F9F86803F096F9386903F01D
:102F900093F9786903F090F97B68002B05D140F232
:102FA000973259495D4801F007F97B68184601F0EE
:102FB000AFFD0346032B05D04FF4667252495848C3
:102FC00001F0FAF802F006FAB86003F071F904466D
:102FD000544B1B68002B04D0524B1B687A68104678
:102FE0009847BB6800221A637B681B6ABA689A42DA
:102FF00010D17B68DB7FFF2B06D07B68DB7F013342
:10300000DAB27B68DA776DE0204603F055F96FF0AD
:10301000020374E07B689B8B002B1ED07B689B8B2C
:10302000013B9AB27B689A837B68BA681A62BB6874
:1030300093F835207B689A777B68DB7FFF2B06D07F
:103040007B68DB7F0133DAB27B68DA774AE02046BF
:1030500003F032F96FF0020351E03B68002B09D115
:10306000BB686FF001021A63204603F025F96FF088
:10307000010344E0BB6893F835207B681B6A93F832
:1030800035309A4207D27B68186ABB6835331A46D6
:10309000022102F03DFB7B6803F114007B685B7A40
:1030A0001A46B968FFF734FD3B68002B0BDDBB689F
:1030B0004C333A460021184602F000FFBB684C33FF
:1030C000184602F09FFD204603F0F6F801F08AFE54
:1030D000BB681B6B002B02D0BB681B6B0FE003F0BF
:1030E000E7F80446204603F0E7F80F4B1B68002B77
:1030F00004D00D4B1B687A68104698470023184689
:103100001C37BD4690BD00BFF4820100087F01005E
:10311000C87D0100347F0100A47E01006C7F0100A6
:10312000807F0100009600200496002090B587B0B3
:1031300000AF78607B68002B05D140F244426349C0
:10314000634801F039F87B68184601F0E1FC03465A
:10315000032B05D040F245425C495E4801F02CF853
:1031600000237B6103F0A4F8386102F033F90346D1
:10317000002B09D15549584800F0E0FE40F24A4280
:103180005249564801F018F803F092F8F86000F040
:10319000EBF80346002B09D04C49514800F0CEFE15
:1031A00040F24A4249494D4801F006F8F86803F0F8
:1031B00083F8386903F080F802F00CF9B86003F086
:1031C00077F80446474B1B68002B04D0454B1B681F
:1031D0007A68104698477B681B6ABA689A4209D099
:1031E000BB684FF0FF321A63204603F065F84FF0DA
:1031F000FF3367E07B68DB7F013BDAB27B68DA771D
:103200007B68DB7F002B54D17B689A7F7B681B6ACD
:1032100093F835309A4207D07B68186A7B681E3372
:103220001A46022102F074FA7B6814331846FFF73D
:103230004FFC0346002B23D17B685B69143BBB60CA
:103240007B68BA681A62BB6893F835207B689A7706
:103250007B68DB7FFF2B0DD07B68DB7F0133DAB22D
:103260007B68DA777B6814331846FFF7A3FC0123E9
:103270007B611EE0204603F01FF86FF0020321E09F
:103280007B689B8B4FF6FF7293420CD07B689B8BC5
:1032900001339AB27B689A837B6800221A627B684A
:1032A000FF229A7705E0204603F006F86FF002034C
:1032B00008E0204603F000F87B69012B01D101F002
:1032C00091FD002318461C37BD4690BD04830100C4
:1032D0006C7F0100807F0100347F0100C87D010008
:1032E000A47E01000896002080B582B000AF02F0F5
:1032F000DFFF78600A4B1B78DBB20133DAB2084B90
:103300001A70084B1B68002B02D0064B1B689847AD
:10331000786802F0D1FF00BF0837BD4680BD00BF0E
:10332000389500203095002080B582B000AF02F0C3
:10333000BFFF78600A4B1B68002B02D0084B1B684C
:103340009847084B1B78DBB2013BDAB2054B1A7089
:10335000786802F0B1FF00BF0837BD4680BD00BFEE
:10336000349500203895002080B582B000AF02F07F
:103370009FFF7860054B1B78FB70786802F09CFF1C
:10338000FB7818460837BD4680BD00BF3895002041
:1033900080B584B000AF7860FFF7E6FF0346002BEE
:1033A00003D00A4A7B6813600CE002F013F8F8605F
:1033B000FB68002B03D1054A7B68136002E0FB68C1
:1033C0007A681A631037BD4680BD00BF3C95002067
:1033D00080B582B000AFFFF7C7FF0346002B01D0D6
:1033E000074B09E001F0F6FF78607B68002B02D004
:1033F0007B68303300E0024B18460837BD4680BD7D
:103400003C95002080B489B000AFF860B9607A6064
:10341000FB68FB61BB68DBB27B617B68032B40D937
:10342000FB6803F00303002B3BD1FB68BB617B69A6
:103430001B027A6913433B613B691B043A691343DE
:103440003B6116E0BB691A1DBA613A691A60BB6933
:103450001A1DBA613A691A60BB691A1DBA613A69E4
:103460001A60BB691A1DBA613A691A607B68103B21
:103470007B607B680F2BE5D807E0BB691A1DBA613A
:103480003A691A607B68043B7B607B68032BF4D845
:10349000BB69FB6105E0FB695A1CFA617A69D2B22B
:1034A0001A707B685A1E7A60002BF4D1FB681846AC
:1034B0002437BD465DF8047B704780B48BB000AF05
:1034C000F860B9607A60FB687B62BB683B627B68CE
:1034D0007B617B690F2B4DD93A6A7B6A134303F0FA
:1034E0000303002B46D17B6AFB613B6ABB6122E090
:1034F000BA69131DBB61FB69191DF96112681A6075
:10350000BA69131DBB61FB69191DF96112681A6064
:10351000BA69131DBB61FB69191DF96112681A6054
:10352000BA69131DBB61FB69191DF96112681A6044
:103530007B69103B7B617B690F2BD9D80AE0BA69A4
:10354000131DBB61FB69191DF96112681A607B6963
:10355000043B7B617B69032BF1D8FB697B62BB6910
:103560003B6207E03A6A531C3B627B6A591C7962F2
:1035700012781A707B695A1E7A61002BF2D1FB68AF
:1035800018462C37BD465DF8047B704780B487B081
:1035900000AFF860B9607A60FB687B61BB683B6133
:1035A0003A697B699A4226D23A697B6813447A6900
:1035B0009A4220D27A697B6813447B613A697B68BE
:1035C00013443B6109E03B69013B3B617B69013B83
:1035D0007B613B691A787B691A707B685A1E7A6036
:1035E000002BF0D10CE03A69531C3B617B69591CFC
:1035F000796112781A707B685A1E7A60002BF2D1BA
:10360000FB6818461C37BD465DF8047B704780B4E4
:1036100087B000AFF860B9607A607B68002B21D07A
:10362000FB687B61BB683B613A69531C3B617B690A
:10363000591C796112781A701B78002B0CD104E0A8
:103640007B695A1C7A6100221A707B68013B7B609F
:103650007B68002BF4D105E07B68013B7B607B68D5
:10366000002BE1D1FB6818461C37BD465DF8047B92
:10367000704790B484B000AFF860B9607A600024FD
:1036800013E0FB681A78BB68591CB9601B78D31A21
:10369000DBB25CB2002C0BD1FB685A1CFA601B78C1
:1036A000002B05D07B68013B7B607B68002BE8D159
:1036B000234618461037BD4690BC704780B485B08D
:1036C00000AF78607B68FB6002E0FB680133FB6061
:1036D000FB681B78002BF8D1FA687B68D31A184670
:1036E0001437BD465DF8047B7047FFFF80B582B09C
:1036F00002AF0B4800F022FC0A4800F01FFC0A4B06
:1037000001930A4B0093002301220421084800F092
:1037100015FC084800F012FC00BFBD4680BD00BF8C
:1037200018830100248301006C8301007883010069
:10373000488301008483010080B485B000AF7860C5
:1037400039603B680A2B17D17B681B681946134BFD
:10375000A3FB0123DA0813469B0013445B00CA1A3B
:10376000FA607B681B681A460C4BA3FB0223DB083C
:103770001A467B681A600AE07B681B6803F00F0337
:10378000FB607B681B681B091A467B681A60FB6834
:1037900018461437BD465DF8047B7047CDCCCCCCC1
:1037A00090B482B000AF786000240DE023469B0007
:1037B00023445B0018467B681B68591C7A681160BB
:1037C0001B780344A3F130047B681B681B78303BF3
:1037D000092BEBD9234618460837BD4690BC7047E5
:1037E000B0B58CB000AFF860B9607A603B607B6CBC
:1037F000BB623C6CBB6C03F04003002B01D06D4BF3
:1038000000E06D4B7B62BB6C03F01003002B03D018
:10381000BB6C23F00103BB64BB6C03F00103002B02
:1038200001D0302300E0202387F82330002387F8DD
:103830002F30BB6C03F00203002B1AD07B68002BE7
:1038400006DA2D2387F82F307B685B427B6010E01F
:10385000BB6C03F00403002B03D02B2387F82F301D
:1038600007E0BB6C03F00803002B02D0202387F88D
:103870002F3000257B68002B19D12B465D1C07F1EA
:1038800030021344302203F8202C13E03B1D39682A
:103890001846FFF751FF03461A467B6A1A442B4627
:1038A0005D1C127807F130010B4403F8202C7B6873
:1038B000002BEBD17B6C9D4200DD7D647B6CE41AB8
:1038C000BB6C03F01103002B15D197F82F30002BA0
:1038D0000DD0002C0BDD013C09E0FA68BB689A4270
:1038E00002D2FB6820221A70FB680133FB6023467A
:1038F0005C1E002BF1DC97F82F30002B0BD0FA6800
:10390000BB689A4203D2FB6897F82F201A70013CDB
:10391000FB680133FB60BB6C03F01003002B1AD172
:103920000AE0FA68BB689A4203D2FB6897F8232042
:103930001A70FB680133FB6023465C1E002BF0DC31
:1039400009E0FA68BB689A4202D2FB6830221A701A
:10395000FB680133FB607B6C5A1E7A649D42F0DB8E
:103960000DE0FA68BB689A4206D207F130032B4497
:1039700013F8202CFB681A70FB680133FB602B46A0
:103980005D1E002B0DDDBB6A002BEAD109E0FA6851
:10399000BB689A4202D2FB6820221A70FB6801338E
:1039A000FB6023465C1E002BF1DCFB6818463037B9
:1039B000BD46B0BD208401003484010080B592B0C2
:1039C00004AFF860B9607A603B60FB68BB62FA687C
:1039D000BB6813447B627A6AFB689A4280F0268255
:1039E0004FF0FF337B627A6AFB68D31ABB601DE23B
:1039F0007B681B78252B0BD0BA6A7B6A9A4203D26C
:103A00007B681A78BB6A1A70BB6A0133BB620AE230
:103A10000023BB777B6801337B607B681B782D2B91
:103A200004D1BB7F43F01003BB77F3E77B681B78BF
:103A30002B2B04D1BB7F43F00403BB77EAE77B6801
:103A40001B78202B04D1BB7F43F00803BB77E1E751
:103A50007B681B78232B04D1BB7F43F02003BB770B
:103A6000D8E77B681B78302B04D1BB7F43F0010380
:103A7000BB77CFE700BF4FF0FF33BB617B681B789C
:103A8000303B092B05D83B1D1846FFF789FEB8616E
:103A900015E07B681B782A2B11D17B6801337B6092
:103AA0003B681A1D3A601B68BB61BB69002B06DAD4
:103AB000BB695B42BB61BB7F43F01003BB774FF038
:103AC000FF337B617B681B782E2B1ED17B68013313
:103AD0007B607B681B78303B092B05D83B1D184663
:103AE000FFF75EFE78610BE07B681B782A2B07D11D
:103AF0007B6801337B603B681A1D3A601B687B6101
:103B00007B69002B01DA00237B6100237B777B68D4
:103B10001B78682B03D07B681B786C2B05D17B68E6
:103B20001B787B777B6801337B600A23FB777B689C
:103B30001B78252B00F00881252BC0F21F81782BE4
:103B400000F31C81582BC0F21981583B202B00F246
:103B5000158101A252F823F0653D00007D3D000073
:103B60007D3D00007D3D00007D3D00007D3D00006D
:103B70007D3D00007D3D00007D3D00007D3D00005D
:103B80007D3D0000DD3B0000733D00007D3D0000F9
:103B90007D3D00007D3D00007D3D0000733D000047
:103BA0007D3D00007D3D00007D3D00007D3D00002D
:103BB0007D3D00005F3D0000113D00007D3D0000A7
:103BC0007D3D00004B3C00007D3D0000B93D000004
:103BD0007D3D00007D3D00006D3D0000BB7F03F09A
:103BE0001003002B10D109E0BA6A7B6A9A4202D214
:103BF000BB6A20221A70BB6A0133BB62BB69013BFE
:103C0000BB61BB69002BEFDC3B681A1D3A601B6887
:103C1000FB74BA6A7B6A9A4202D2BB6AFA7C1A7057
:103C2000BB6A0133BB6209E0BA6A7B6A9A4202D27C
:103C3000BB6A20221A70BB6A0133BB62BB69013BBD
:103C4000BB61BB69002BEFDCEDE03B681A1D3A60FD
:103C50001B683B623B6A002B01D1824B3B62002315
:103C6000FB6202E0FB6A0133FB62FA6ABB699A42BB
:103C700005D0FB6A3A6A13441B78002BF2D17B69AA
:103C8000002B05DDFA6A7B699A4201DD7B69FB62E4
:103C9000BB7F03F01003002B10D109E0BA6A7B6AE6
:103CA0009A4202D2BB6A20221A70BB6A0133BB62FD
:103CB000BB695A1EBA61FA6A9A42EFDB00233B6382
:103CC00010E0BA6A7B6A9A4203D23B6A1A78BB6AEE
:103CD0001A70BB6A0133BB623B6A01333B623B6BC8
:103CE00001333B633A6BFB6A9A42EADB09E0BA6A4A
:103CF0007B6A9A4202D2BB6A20221A70BB6A0133E5
:103D0000BB62BB695A1EBA61FA6A9A42EFDB8AE06B
:103D1000BB69B3F1FF3F05D10823BB61BB7F43F013
:103D20000103BB773B681A1D3A601B681A46BB7FCC
:103D300002937B690193BB6900931023796AB86A87
:103D4000FFF74EFDB8626EE0BA6A7B6A9A4202D211
:103D5000BB6A25221A70BB6A0133BB6263E0082389
:103D6000FB772AE0BB7F43F04003BB771023FB7750
:103D700023E0BB7F43F00203BB771DE0BA6A7B6A96
:103D80009A4202D2BB6A25221A70BB6A0133BB6217
:103D90007B681B78002B0BD0BA6A7B6A9A4203D2ED
:103DA0007B681A78BB6A1A70BB6A0133BB623AE05F
:103DB0007B68013B7B6036E000BF7B7F6C2B09D1C9
:103DC0003B681A1D3A601B687B63BB7F03F00203EC
:103DD000002B1AE07B7F682B0ED13B681A1D3A60DE
:103DE0001B689BB27B63BB7F03F00203002B0CD0EC
:103DF0007B6B1BB27B6308E03B681A1D3A601B6853
:103E00007B63BB7F03F00203002B7A6BF97FBB7FE0
:103E100002937B690193BB6900930B46796AB86A88
:103E2000FFF7DEFCB8627B6801337B607B681B7840
:103E3000002B7FF4DDADBB68002B0BD0BA6A7B6A28
:103E40009A4203D2BB6A00221A7003E07B6A013BEC
:103E500000221A70BA6AFB68D31A18463837BD4672
:103E600080BD00BFB083010080B584B000AFF860B2
:103E7000B9607A607B68BA684FF0FF31F868FFF785
:103E80009DFD034618461037BD4680BD0EB480B573
:103E900085B000AF786007F12003BB60BA68F969AC
:103EA0007868FFF7E1FFF860FB6818461437BD46F5
:103EB000BDE8804003B0704780B400AF034B1B687F
:103EC0001846BD465DF8047B704700BF4095002052
:103ED00080B584B000AF7860124B1B68FB607868D7
:103EE000FEF74BFBB860BA68FB689A4201D1002329
:103EF00013E0BB68002B0FD00A4B1B68002B04D0CB
:103F0000084B1B681846FEF7D1FB4321B868FEF743
:103F100041FB044ABB681360FB6818461037BD4676
:103F200080BD00BF4095002080B483B000AF7860B2
:103F300000BF0C37BD465DF8047B70470FB480B5F9
:103F400082B000AF07F114033B603B683A697F2100
:103F50001048FFF733FD03467B607B687F2B01D958
:103F60007F237B600C4B1B68002B03D10948FFF7B4
:103F7000DBFF06E0084B18687B68064A0021FEF765
:103F800027FC7B6818460837BD46BDE8804004B072
:103F9000704700BF789500204095002080B500AFA5
:103FA000012203490348FEF781FF00BF80BD00BF27
:103FB000B88301004C95002080B500AF01F00AFAEB
:103FC0000346002B06D04FF0FF310448FEF7A0FF58
:103FD000034600E00023184680BD00BF4C9500203A
:103FE00080B582B000AF78607B68002B05D04FF4BD
:103FF000AC620849084800F0DFF801F0EBF903462D
:10400000002B02D00548FFF791F800BF0837BD46E6
:1040100080BD00BF5C840100C08301004C9500207E
:1040200080B485B000AFF860B9607A60FB68002B9F
:1040300004D00D4B1B68DA69FB681A60BB68002B63
:1040400004D0094B1B681A6ABB681A607B68002B96
:1040500004D0054B1B685A6A7B681A6000BF14378E
:10406000BD465DF8047B70477095002080B584B034
:1040700000AF786039607B68033323F00303FB6093
:104080003B6823F00303BB60BA68FB689A4205D81B
:1040900040F2B6520A490B4800F08EF8BA68FB6845
:1040A000D31A1A467968084800F028F90346074AE7
:1040B0001360FFF773FF00BF1037BD4680BD00BF20
:1040C00048840100D0830100B8830100709500206E
:1040D00080B584B000AF7860FFF76EFFF8600C4BDE
:1040E0001B687968184600F08BF9B860F868FFF72C
:1040F00077FF084B1B68002B04D0064B1B687968C0
:10410000B8689847BB6818461037BD4680BD00BFE9
:10411000709500204495002080B584B000AF786091
:1041200039607B683A6802FB03F31846FFF7D0FF5B
:10413000F860FB68002B08D07B683A6802FB03F349
:104140001A460021F868FFF75DF9FB68184610373A
:10415000BD4680BD80B584B000AF78600A4B1B6857
:10416000002B03D0084B1B6878689847FFF724FFA3
:10417000F860786800F078FAF868FFF731FF00BF60
:104180001037BD4680BD00BF4895002080B586B081
:1041900000AFF860B9607A60FFF70EFF78617A6867
:1041A000B968F868FFF73CFF7869FFF719FF00BFAF
:1041B0001837BD4680BDFFFF80B586B000AFF86000
:1041C000B9607A600023FB750C4B1B68002B0BD188
:1041D0007B68BA68F9680A48FFF7B0FE00BFFB7D4C
:1041E000DBB2002BFBD005E0044B1B687A68B96892
:1041F000F868984700BF1837BD4680BD7495002009
:10420000E883010080B584B000AF786039607B68D6
:104210009B6A3A689A4204D2822235493548FFF7B0
:10422000CBFF7B68DB6A3A689A4204D38322304929
:104230003148FFF7C1FF7B689A6A3B685B681344AB
:10424000FB603A68FB689A4224D0FB681B6803F065
:104250000103002B1ED17B68DB6AFA689A4219D0F1
:104260007B681B6BFA689A4202D17B683A681A63D2
:10427000FB6800221A60FB685A683B685A607B68DA
:104280009B6A3A68D11A7B689A6AFB685B68134438
:104290000A469A607B689A6A3B689B681344BB60D5
:1042A000BA683B689A421FD0BB681B6803F00103E1
:1042B000002B19D17B681B6B3A689A4202D17B684C
:1042C000BA681A633B6800221A603B685A68BB6888
:1042D0005A607B689B6ABA68D11A7B689A6A3B68A5
:1042E0005B6813440A469A6000BF1037BD4680BD24
:1042F000888801006C8401009084010080B58AB038
:1043000000AFF860B9607A60BB68033323F0030341
:104310007B627B6A38333B623B6A033323F00303DF
:10432000FB61BA687B68134423F00303BB61BB697C
:10433000182B53D9BB69183B3A6A9A424ED8BA69CE
:10434000FB69D31A183B7B6138220021786AFFF79A
:1043500059F87B6AFA680C21184600F07DFA7B6AEE
:10436000254A5A617B6AFA699A617B6A7A69DA61DD
:104370007B6A7A695A63FA697B6A9A627B6A9B6A8A
:104380003B617B6A23F001023B691A607B6A5B6BCD
:1043900003F10C023B695A603B6900229A607B6A18
:1043A0009A6A3B695B681A447B6ADA627A6A7B6A5A
:1043B000DB6A42F001021A607B6A5A6B7B6ADB6A35
:1043C0000C325A607B6A5A6B7B6ADB6A0C329A60E9
:1043D0007B6A9A6A7B6A1A637B6A08E0B968BA6882
:1043E0007B6813441A460548FFF7A8FD00231846CA
:1043F0002837BD4680BD00BFC0840100C8840100CD
:1044000080B588B000AF786039603B68002B01D17F
:10441000002315E17B68002B05D14FF490728A4987
:104420008A48FFF7C9FE7B68184600F071FB034617
:104430000C2B05D040F2211283498548FFF7BCFEC2
:104440007B68184600F046FB0346002B05D14FF46D
:1044500091727D497F48FFF7AFFE7B68BB613B6887
:10446000033323F003033B60BB695B6B3A689A42FA
:1044700001D90023E4E03B680B2B01D80C233B60FF
:10448000BB691A6BBB699B6AD31AFB61CFE0BB693E
:104490009A6AFB6913447B617B691B6803F0010323
:1044A000002B40F0BE807B695A68FB69D31A0C3B35
:1044B0003A689A4200F2B5807B695A68FB69D31A60
:1044C000A3F10C023B6818339A4239D3FA693B686E
:1044D00013440C333B61BB699A6A3B691344FB602C
:1044E000BB6923F00102FB681A607B695A68FB68AC
:1044F0005A60FB68FA699A607B693A695A60FB689E
:104500005A68BB695B6B0C339A4206D0BB699A6AE6
:10451000FB685B6813443A699A60BB691A6A3B6836
:10452000134403F10C02BB691A62BB695A6ABB6986
:104530001B6A9A421AD2BB691A6ABB695A6215E0B1
:10454000BB691A6A7B695B68B969896A7869411ACB
:104550005B1A1A44BB691A62BB695A6ABB691B6A57
:104560009A4203D2BB691A6ABB695A62BB6943F0BB
:1045700001027B691A60BB691B6B7A699A4228D178
:1045800007E0BB699A6ABB691B6B5B681A44BB692D
:104590001A63BB691B6B1B6803F00103002B05D07A
:1045A000BB691A6BBB69DB6A9A42EAD1BB691A6BB9
:1045B000BB69DB6A9A420CD0BB691B6B1B6803F0BA
:1045C0000103002B05D040F283121F492248FFF758
:1045D000F3FD7A693B6813440C33BA69D26A93429B
:1045E00005D940F2851218491C48FFF7E5FD7B69A3
:1045F0000C3303F00303002B05D04FF4C3721249B0
:104600001748FFF7D9FD7B6903F00303002B05D0A2
:1046100040F287120C491348FFF7CEFD7B690C333B
:104620000EE0BB699A6AFB6913445B68FB61BB6976
:104630005A6B3B68D31AFA699A427FF628AF002377
:1046400018462037BD4680BD9488010004850100CE
:10465000148501005085010078850100C88501009E
:10466000188601006486010080B584B000AF7860D0
:104670007B68002B00F083807B6803F00303002B32
:1046800005D04FF4027240494048FFF795FD7B6822
:104690000C3BFB60FB681B6823F00103BB60BB683D
:1046A000002B05D14FF4057237493948FFF784FDD7
:1046B000FB681B6803F00103002B05D140F21522B3
:1046C00031493448FFF778FDBB68184600F020FAFE
:1046D00003460C2B05D040F216222B492E48FFF73B
:1046E0006BFDBB68184600F0F5F90346002B05D1B9
:1046F00040F2172224492948FFF75EFDBB689B6AF8
:104700007A689A4204D3BB68DB6A7A689A4205D316
:104710004FF406721C492248FFF74EFDBB689A6AA7
:10472000FB685B6813441B6823F001031A46BB68EF
:10473000934205D040F21A2213491A48FFF73CFD74
:10474000BB6823F00102FB681A60BB681B6BFA6848
:104750009A4202D2BB68FA681A63BB681A6ABB68DD
:104760009B6AF968CB1A1946FB685B68CB1A1A4436
:10477000BB681A62F968B868FFF744FD00E000BF43
:104780001037BD4680BD00BFA4880100948601009B
:10479000348701004C8701005C870100A487010079
:1047A000DC8701005088010080B483B000AF7860DE
:1047B00039607B681B683A685A607B681A683B6896
:1047C0001A607B683A681A603B687A685A6000BF72
:1047D0000C37BD465DF8047B704780B483B000AFF2
:1047E00078607B681B687A6852685A607B685B688F
:1047F0007A6812681A607B687A685A607B685A68BF
:104800007B681A6000BF0C37BD465DF8047B7047BB
:1048100080B485B000AF0346FB710023FB600FE05E
:104820000C4AFB681B0113441B78FA799A4204D1A5
:10483000FB681B01074A134406E0FB680133FB6079
:10484000FB68082BECDD002318461437BD465DF8E5
:10485000047B70479001002090B589B000AFF860EC
:104860000B467A60FB720023FB61FB7A1846FFF768
:10487000CFFFB861BB69002B05D14FF4AB7225495E
:104880002548FFF799FC00F009FCBB695B68FB61F8
:1048900012E0FB690C3B7B617B69002B09D07A69D4
:1048A000FB689A4205D14FF4B3721A491B48FFF7CF
:1048B00083FCFB691B68FB61BB690433FA699A429C
:1048C000E7D100F001FCFB7A63F07F03DAB2FB680A
:1048D0001A72FB68082279681846FEF798FE104B9A
:1048E0001B68002B03D00E4B1B68F868984701F03B
:1048F000DFFC0446BB691A1DFB680C3319461046E1
:10490000FFF752FF204601F0D7FC00BF2437BD4619
:1049100090BD00BF48890100B4880100CC88010027
:10492000F895002090B583B000AF78607B68002BCD
:1049300005D140F293120F490F48FFF73DFC0F4B92
:104940001B68002B03D00D4B1B68786898477B6869
:1049500000221A7201F0ACFC04467B680C33184646
:10496000FFF73BFF204601F0A7FC00BF0C37BD4618
:1049700090BD00BF58890100DC880100FC95002033
:1049800090B587B000AF03463960FB7101F090FC31
:104990007861FEF7E9FC0346002B09D029492A4833
:1049A000FFF7CCFA40F2B71226492848FFF704FC7B
:1049B000786901F081FCFB791846FFF729FF38611F
:1049C0003B69002B05D140F2BB121E492048FFF77E
:1049D000F3FB3B69DB681846FFF77AFBF860FB687E
:1049E000002B01D1002329E03B69DB681A46002136
:1049F000F868FEF707FDFB68FA791A72FB68002277
:104A00005A72FB68082239681846FEF700FE114BFF
:104A10001B68002B03D00F4B1B68F868984701F008
:104A200047FC04463B691A1DFB680C3319461046C7
:104A3000FFF7BAFE204601F03FFCFB6818461C3722
:104A4000BD4690BD6C890100F08801001889010005
:104A5000B4880100F895002090B583B000AF78606D
:104A60007B68002B05D140F2F51216491648FFF776
:104A7000A3FB7B681B7A5BB2002B05DA4FF4FB7259
:104A800010491248FFF798FB114B1B68002B03D00D
:104A90000F4B1B68786898477B6800221A7201F0F8
:104AA00007FC04467B680C331846FFF796FE204649
:104AB00001F002FC7868FFF74DFB00BF0C37BD46E4
:104AC00090BD00BF80890100DC8801001C890100C5
:104AD000FC95002080B582B000AF78607B68002B29
:104AE00005D14FF4067208490848FFF765FB7B685B
:104AF0001B7A5BB2002B01DA012300E00023184689
:104B00000837BD4680BD00BF94890100DC880100E4
:104B100080B582B000AF78607B68002B05D140F291
:104B20002B2206490648FFF747FB7B681B7A03F0F8
:104B30007F03DBB218460837BD4680BDB08901004F
:104B4000DC88010080B586B000AF78600B46FB7052
:104B500000233B6100237B610023FB60FB78184648
:104B6000FFF756FEF8607B68002B02D0FB68002B35
:104B700001D1002335E001F09BFBB860FEF7F4FBA8
:104B80000346002B09D019491948FFF7D7F940F21D
:104B9000492216491748FFF70FFBB86801F08CFB54
:104BA00000F07CFAFB685B687B6112E07B690C3B80
:104BB0003B613B69082279681846FEF75AFD0346B7
:104BC000002B03D100F080FA3B690AE07B691B6887
:104BD0007B61FB6804337A699A42E7D100F074FA8A
:104BE000002318461837BD4680BD00BFC4890100A8
:104BF000F08801001889010080B483B000AF7860AC
:104C00007B687A685A607B685A687B681A6000BF64
:104C10000C37BD465DF8047B704780B483B000AFAD
:104C2000786039607B685B683A681A607B685A68AC
:104C30003B685A607B683A685A603B687A681A60D9
:104C400000BF0C37BD465DF8047B704780B483B06D
:104C500000AF78607B681B687A6852685A607B682E
:104C60005B687A6812681A607B687A685A607B6849
:104C70005A687B681A6000BF0C37BD465DF8047B3C
:104C8000704780B483B000AF78607B681B687A6837
:104C90009A420CBF01230023DBB218460C37BD46F5
:104CA0005DF8047B7047FFFF80B584B000AF78608B
:104CB0007B68002B04D15F221C491D48FFF77CFA5A
:104CC0007B689B6A1B78232B11D17B68DB691A46B2
:104CD0007B689B6A9A420AD97B68DB691A467B68C3
:104CE0009B6A19467B68DB6A0B449A420CD97B6845
:104CF00019461048FFF722F901F0DAFA0346FB6083
:104D0000FB68002BFCD10DE07B68DB691A467B68F1
:104D10009B6A20339A4205D87B6819460648FFF7FC
:104D20000DF9FFE700BF1037BD4680BD3C8A01008A
:104D3000D4890100E8890100048A0100B0B582B07D
:104D400000AF7860094B1B68184601F0B7FD0346B9
:104D5000013B1C46064B53F83430A3F114057B6825
:104D60001C602B4618460837BD46B0BD0C97002086
:104D70000C96002098B500AF094B00221A80002441
:104D800006E0E300074A13441846FFF735FF0134F5
:104D90001F2CF6DD044B00221A6000BF98BD00BF37
:104DA000109700200C9600200C97002090B583B03F
:104DB00000AF3B1D1846FFF7C1FF0446084B1C60BF
:104DC000204600F033F9032384F8343004F11C0347
:104DD000184601F0BAFA00BF0C37BD4690BD00BFBF
:104DE0001497002080B586B000AF01F061FAF8603A
:104DF0005C4BB3F90030002B40F0AC805A4B1B6881
:104E0000002B00F0A78000233B613B1D1846FFF7F5
:104E100095FF7861554B1B6893F8343003F0070316
:104E2000032B2CD1514B1B6893F835301A467B6805
:104E30009A4203D24D4B1B687B6115E04B4B1B68BC
:104E400093F835301A467B689A420BD1474B1B6862
:104E500093F8343003F00803002B03D1434B1B6855
:104E60007B6101E001233B61404B1B6893F83420D8
:104E70003E4B1B6822F00802D2B283F834203B4B31
:104E80001B687A699A4250D07B68DAB2384B1A7044
:104E9000364B1B68BB60354A7B691360354B1B681A
:104EA000002B04D0334B1B687969B86898473B697D
:104EB000002B02D0B86800F063F8786900F0B6F80B
:104EC0007B6993F834305BB223F007035BB243F0A5
:104ED00003035BB2DAB27B6983F834207869FFF7A9
:104EE000E3FE254B1B78DBB2002B14D1234B1B6850
:104EF000002B03D0214B1B68B8689847BB681C3354
:104F00001A467B691C331946104601F0D8F9F86837
:104F100001F0D2F922E0BB681C331A467B691C33CE
:104F20001946104601F0CBF914E0104B1B681846E7
:104F300000F07CF80D4B1B6893F834305BB223F023
:104F400007035BB243F003035AB2084B1B68D2B2AB
:104F500083F83420F86801F0AFF900BF1837BD4678
:104F600080BD00BF109700200C97002014970020F0
:104F7000189700201C9700203895002020970020CB
:104F800090B583B000AF78607B68002B05D140F20C
:104F9000D22221492148FFF70FF901F089F904468F
:104FA0001F4B1B687A689A420ED17B6893F83430A5
:104FB0005BB223F007035BB243F003035BB2DAB2E8
:104FC0007B6883F8342020E07B6893F834305BB250
:104FD00023F007035BB243F001035BB2DAB27B68F4
:104FE00083F834207B6893F83530DB000D4A1A448F
:104FF0007B68143319461046FFF70FFE7B689A6BE7
:10500000094B1B681343084A1360204601F054F90A
:1050100000BF0C37BD4690BD588A0100D4890100FD
:10502000149700200C9600200C97002090B583B0B8
:1050300000AF78607B68002B05D140F23332134912
:105040001348FFF7B9F801F033F904467B681433CD
:105050001846FFF7FBFD7B6893F83530DB000D4AFF
:1050600013441846FFF70DFE0346002B07D07B685C
:105070009B6BDA43084B1B681340074A13602046BA
:1050800001F01AF900BF0C37BD4690BD748A0100CB
:10509000D48901000C9600200C97002098B500AF31
:1050A00001F006F90446074BB3F900309BB2013317
:1050B0009BB21AB2034B1A80204601F0FDF800BFE4
:1050C00098BD00BF1097002098B500AF01F0F0F830
:1050D0000446104BB3F900309BB2013B9BB21AB2AD
:1050E0000C4B1A800B4BB3F90030002B0CDC094B36
:1050F00000221A80204601F0DFF8074B1B68002BC6
:1051000005D0FFF76FFE02E0204601F0D5F800BFA2
:1051100098BD00BF109700201497002080B400AF06
:10512000044BB3F900309BB21846BD465DF8047BD2
:10513000704700BF1097002080B483B000AF786044
:105140007B687A685A607B685A687B681A6000BF1F
:105150000C37BD465DF8047B704780B483B000AF68
:1051600078607B681B687A6852685A607B685B6805
:105170007A6812681A607B687A685A607B685A6835
:105180007B681A6000BF0C37BD465DF8047B704732
:1051900090B583B000AF00F01DF9786001F088F899
:1051A00004467868FFF742FF7B684C33184600F0EE
:1051B000E1FC7B68042283F834207868FDF7AAFBC1
:1051C000204601F079F8FFF70DFE00BF0C37BD4611
:1051D00090BDFFFF90B585B000AF78607B68FB6045
:1051E000FB68002B04D1872219491A48FEF7E4FF17
:1051F000FB6893F8343003F00703022B04D08822B5
:1052000013491548FEF7D8FFF868FFF781FC0346FD
:10521000012B04D089220E491048FEF7CDFF01F082
:1052200047F80446FB686FF001021A63FB68143309
:105230001846FFF792FFF868FFF7A2FE204601F03C
:105240003BF8FFF7CFFD00BF1437BD4690BD00BF50
:10525000308C0100908A0100A48A0100E08A0100DC
:1052600080B586B002AFF860B9607A603B60FB68D9
:1052700014331846FFF760FFFB687A681A62FB6810
:105280003A685A62FB68BA699A62FB68FA69DA623C
:10529000FB68986AFB68DB6A1A462321FEF7B2F8BE
:1052A000FB68186AFB68596AFB689A6AFB68DB6AE4
:1052B000043B1A44264B01F099F80246FB68DA6178
:1052C00097F820301F2B04D9BE2222492248FEF72E
:1052D00073FFFB6897F8202083F83520FB680022D5
:1052E0009A63FB680022DA63FB68002283F840209F
:1052F000FB687A6A5A64FB687A6A9A64FB680022DF
:105300001A63FB68002283F83420FB6800229A6746
:10531000FB680022DA67FB6803F14C00F9680023A0
:10532000019300230093FB680C4A00F0E5FBFB6847
:105330000022DA670A4B1B68002B03D0084B1B685E
:10534000F8689847002318461037BD4680BD00BF57
:1053500091510000408C0100248B0100D5510000C8
:105360002C97002080B588B004AFF860B9607A60EF
:105370003B60FB68002B05D140F233121249134801
:10538000FEF71AFFBB69002B05D14FF49A720E4944
:105390000F48FEF711FFBA680121F868FFF75CFAC1
:1053A0007B6A039397F820300293FB690193BB69F2
:1053B00000933B687A68B968F868FFF751FF0346C5
:1053C00018461037BD4680BD508C0100908A010000
:1053D000488B010080B400AF034B1B681846BD46E4
:1053E0005DF8047B704700BF1497002080B582B041
:1053F00000AF78607B68002B05D14FF4B3721C4975
:105400001C48FEF7D9FE7B6893F8343003F007039D
:10541000002B05D040F2671215491748FEF7CCFE65
:105420007868FFF775FB0346012B05D04FF4B47283
:105430000F491248FEF7C0FE7B6893F835301A46D4
:10544000012393401A467B689A637B68022283F8A3
:105450003420786800F03EFAFFF7BCFF0346002BCB
:1054600001D0FFF7BFFC002318460837BD4680BDBA
:10547000608C0100908A0100608B0100E08A0100CD
:1054800080B584B000AF78607B68002B05D140F216
:10549000911223492348FEF78FFE7868FFF738FB07
:1054A0000346012B05D04FF4C9721D491E48FEF773
:1054B00083FE7868FFF70EFB0346002B05D140F210
:1054C000931217491948FEF777FE7B6893F834303A
:1054D00003F00703042B01D100231CE07B6893F841
:1054E000343003F00703002B02D07868FFF79EFDED
:1054F00000F0DEFEF8607B684C33184600F03AFBA3
:105500007B68042283F834207868FDF703FAF86892
:1055100000F0D2FE002318461037BD4680BD00BF04
:10552000748C0100908A0100E08A0100988B0100D0
:1055300080B58AB004AFF860B9607A603B60F96802
:105540000120FFF71DFA78617B69002B01D1002350
:105550001BE03868FEF7BCFD38613B69002B04D1C5
:105560007869FFF779FA00230FE07B6A039397F8D5
:10557000203002933B6801933B6900937B68BA68D3
:10558000F9687869FFF76CFE7B6918461837BD46E5
:1055900080BDFFFF80B584B000AF78607B68002BD2
:1055A00005D14FF4FC7223492348FEF705FE7868C5
:1055B000FFF7AEFA0346012B05D040F2F9121D4960
:1055C0001E48FEF7F9FD7868FFF784FA0346002BC2
:1055D00005D04FF4FD7217491948FEF7EDFD7B68C1
:1055E00093F8343003F00703042B01D100231CE0AF
:1055F0007B6893F8343003F00703002B02D07868FF
:10560000FFF714FD00F054FEF8607B684C33184639
:1056100000F0B0FA7B68042283F834207868FDF744
:1056200079F9F86800F048FE002318461037BD46A7
:1056300080BD00BF888C0100908A0100E08A0100D3
:10564000C88B010090B585B000AF7860FFF7C2FE4F
:10565000F860FB68002B05D140F241221B491C4831
:10566000FEF7AAFDF868FFF753FA0346012B05D0B1
:1056700040F2422215491748FEF79EFD00F018FE41
:105680000446FB6800221A63F86800F0BFF8FB6864
:105690004C333A1D0021184600F010FCFB684C33D7
:1056A000184600F0AFFA204600F006FEFFF79AFB1E
:1056B000FB681B6B13F1020F02D1FB6800221A6317
:1056C000FB681B6B18461437BD4690BD9C8C0100CF
:1056D000908A0100E08A010080B582B000AF786056
:1056E0007868FFF7AFFF034618460837BD4680BD10
:1056F00080B584B000AF78607868FCF733FEF8605E
:10570000F868FFF79FFF034618461037BD4680BD77
:1057100090B587B000AFF860B9607A60FB68002B85
:1057200005D140F2D72236493648FEF745FDF868E4
:10573000FFF7EEF90346012B05D04FF436723049DE
:105740003148FEF739FDBB68022B09D0BB68022B3C
:105750004FDCBB68002B34D0BB68012B36D048E04F
:1057600000F0A6FD0446FB6893F8343003F007030D
:10577000012B14D1F868FFF759FC7B681A78FB6895
:1057800083F83520FB6893F835301A46012393409F
:105790001A46FB689A63F868FFF7F2FB0DE07B6836
:1057A0001A78FB6883F83520FB6893F835301A4681
:1057B000012393401A46FB689A63204600F07CFD63
:1057C00018E0F868FFF712FE034614E0F868FFF7E8
:1057D00081F90346012B04D1F868FFF751FE786187
:1057E00003E0F868FFF7D6FE7861FFF7FBFA7B6904
:1057F00001E000BF002318461C37BD4690BD00BF26
:10580000AC8C0100908A0100E08A010090B583B061
:1058100000AF78607B68002B05D140F24D322849FB
:105820002848FEF7C9FC7868FFF772F90346012B98
:1058300005D040F24E3222492348FEF7BDFCFFF767
:10584000C9FD02467B68934205D040F24F321C49A5
:105850001E48FEF7B1FC7B6893F8343003F0070470
:10586000012C04D0032C02D04FF0FF3324E000F0D1
:105870001FFD04467868FFF7D9FB7B6893F8343046
:105880005BB223F007035BB243F002035BB2DAB210
:105890007B6883F834207B684C33184600F0C4FAE8
:1058A000204600F009FD0A4B1B68002B03D0084B73
:1058B0001B6878689847002318460C37BD4690BD92
:1058C000C08C0100908A0100E08A0100148C010064
:1058D0002497002090B583B000AF78607B68002BE0
:1058E00005D140F27B321D491D48FEF765FC786802
:1058F000FFF70EF90346012B05D04FF45F721749ED
:105900001848FEF759FC7B6893F8343003F007031E
:10591000022B02D04FF0FF331BE000F0C9FC04461D
:105920007B6814331846FFF718FC7B684C33184625
:1059300000F07AFA7868FFF723FB204600F0BCFC01
:10594000094B1B68002B03D0074B1B6878689847EE
:10595000002318460C37BD4690BD00BFD48C010013
:10596000908A0100E08A01002897002080B483B06B
:1059700000AF78607B687A685A607B685A687B6899
:105980001A6000BF0C37BD465DF8047B704780B4D9
:1059900083B000AF786039607B681B683A685A60F2
:1059A0007B681A683B681A607B683A681A603B68D3
:1059B0007A685A6000BF0C37BD465DF8047B7047BB
:1059C00080B483B000AF78607B681B687A685268E7
:1059D0005A607B685B687A6812681A607B687A68CC
:1059E0005A607B685A687B681A6000BF0C37BD46F6
:1059F0005DF8047B704780B483B000AF78607B684B
:105A00001B687A689A420CBF01230023DBB2184658
:105A10000C37BD465DF8047B704780B586B000AF9B
:105A2000F860B9607A603B60FB6897F820205A7292
:105A3000FB685B7A23F00103DAB2FB685A72FB68F9
:105A4000BA68DA61FB687A681A62FB6800229A62B7
:105A5000FB683A685A6200237B610BE07B69023382
:105A6000DB00FA68134404331846FFF77FFF7B69B5
:105A700001337B617B69002BF0DD00BF00BF18376D
:105A8000BD4680BD90B585B000AF78604FF0FF3364
:105A9000FB6000F00DFC04467868FFF7ACFF03469E
:105AA000002B06D17B681B68143BBB60BB689B6AFC
:105AB000FB60204600F000FCFB6818461437BD462A
:105AC00090BD80B584B000AF78600023FB600BE030
:105AD000FB680233DB007A68134404331846FFF78F
